S00E0000556E6F4A6F792E73726563B2
S11300000C94D4000C94F1000C94F1000C94F100C5
S11300100C94F1000C94F1000C94F1000C94F10098
S11300200C94F1000C94F1000C94F1000C94040372
S11300300C9425030C94F1000C94F1000C94F10041
S11300400C94F1000C94F1000C94F1000C94F10068
S11300500C94F1000C94F1000C94F1000C94F10058
S11300600C94F1000C94F1000C94F1000C94F10048
S11300700C94F1002126010700000000000100009B
S11300808F011200020000E3002200210000F500AD
S1130090090022000005018A00030000DF000401BA
S11300A0030904CD001002030904AD001E1E03530E
S11300B00049004D0043004800410049005200201F
S11300C0004D004B0049004900490000001003683E
S11300D00063003600320035006D0061000000044A
S11300E0030904090222000101008032090400000E
S11300F00103000000092111010001228A00070503
S1130100810340000A05010905A1011500250135F7
S11301100045017501950005091901290E81029513
S113012010810105012507463B0175049500650012
S11301309502810116000026FF0336000046FF03E6
S11301400930093109327510950381020501160041
S11301500026FF0036000046FF000935093609373E
S11301607508950381020600FF0920092109220967
S113017023092409250926092709280929092A09FF
S11301802B7508950C81020A21269508B102C0122C
S113019001100100000040C410C0820001010200EF
S11301A00101C1320000000011241FBECFEFD2E0D4
S11301B0DEBFCDBF11E0A0E0B1E0E8E7F8E002C0A7
S11301C005900D92AA30B107D9F721E0AAE0B1E079
S11301D001C01D92A532B207E1F70E9460010C94A0
S11301E03A040C9400009093CD008093CC0088E1F5
S11301F08093C90086E08093CA0008952091C800C6
S113020027FD0AC0EFE9FFE03197F1F700C00000D5
S11302100197A1F780E008958091CE000895909110
S1130220C80095FFFCCF8093CE0008958091C8004C
S113023087FF05C08091CE0080930C01F7CF08950D
S11302404AB121E030E0B90102C0660F771F8A95F8
S1130250E2F7CB01462B4AB99BB1809589238BB930
S113026008954AB121E030E0B90102C0660F771F5A
S11302708A95E2F7CB01962F909549234AB99BB111
S1130280892B8BB908951F93CF93DF93182F0E9466
S11302900F0189E190E00E94FE00C82FD0E081E0C8
S11302A0810F0E940F0189E190E00E94FE0090E01E
S11302B0982F88278C0F9D1FDF91CF911F91089550
S11302C0CF93DF93CDB7DEB729970FB6F894DEBF8F
S11302D00FBECDBFA89584B7877F84BF0FB6F894AF
S11302E0A8958091600088618093600010926000FE
S11302F00FBE83E090E00E94F30080E880936100E9
S1130300109261000E947D020E94A102811119C015
S113031085E00E9420012FEF80E792E02150804089
S11303209040E1F700C0000085E00E9431012FEF0A
S113033080E792E0215080409040E1F700C0000047
S1130340E3CF2FEF89E698E1215080409040E1F718
S113035000C0000080E090E00E94430190930701F8
S11303608093060182E090E00E944301909305018E
S11303708093040184E090E00E9443019093030180
S113038080930201712C812C912C8FE39CE90197BD
S1130390F1F700C0000085E00E9420010E941601D0
S11303A080E090E00E9443015C01809106019091FD
S11303B007018A199B0997FF03C0919581959109BB
S11303C020910001309101012817390770F49394AA
S11303D080E090E00E9443015C0194E1991528F7C4
S11303E0B0920701A0920601E0CFB0920701A0925B
S11303F0060182E090E00E9443016C0180910401B7
S1130400909105018C199D0997FF03C091958195E1
S1130410910920910001309101012817390770F4E6
S1130420839482E090E00E9443016C0124E128154A
S113043028F79093050180930401E0CFD092050141
S1130440C092040184E090E00E9443017C01809109
S11304500201909103018E199F0997FF03C09195A2
S113046081959109209100013091010128173907E4
S113047070F4739484E090E00E9443017C0184E171
S1130480871528F7F0920301E0920201E0CFF09281
S11304900301E092020186E00E940F0189E190E0ED
S11304A00E94FE008F8387E00E940F0189E190E0A3
S11304B00E94FE00888788E00E940F0189E190E095
S11304C00E94FE00898785E00E9431010A2DBA82CC
S11304D0A9822C2DDC82CB824E2DFE82ED821A81E4
S11304E03C815E816F81788589850E94D5024DCFDC
S11304F08091E80080FFFCCF089580EA8093D800C3
S113050086E089BD80E090E009B400FC0DC0EFE90D
S1130510FFE03197F1F700C000000196883EF3E058
S11305209F0791F781E0089580E88093D8001092A6
S1130530E00010920B018CE08093E200789480E05C
S1130540089580910B01089580910B01811102C0DF
S11305508FEF08958FB7F89491E09093E90090910C
S1130560E4009E5C21E03091E80035FF05C0EDE039
S1130570F1E098E19E0F0EC08FBF80910B0188239C
S113058039F38091E400891719F38FB7F894209315
S1130590E900E9CF21912093F1009E13FBCF9AE368
S11305A09093E8008FBF80E008950F931F93CF933B
S11305B0DF93CDB7DEB729970FB6F894DEBF0FBE31
S11305C0CDBF09831A832B833C834D835E83EDE087
S11305D0F1E029813A81348323832B813C81368362
S11305E025832D813E8130872783618772878387A6
S11305F029960FB6F894DEBF0FBECDBFDF91CF9121
S11306001F910F910C94A4021F920F920FB60F9298
S113061011248F938091E1001092E10083FF0FC0B9
S11306201092E90081E08093EB001092EC0082E3E9
S11306308093ED0088E08093F00010920B018F917D
S11306400F900FBE0F901F9018951F920F920FB628
S11306500F9211242F933F934F935F936F937F9344
S11306608F939F93AF93BF93CF93DF93EF93FF93B6
S11306701092E9008091E80083FFE6C09091F100B8
S11306808091F100C091F1002091F100D0E0D22BD3
S11306904091F1002091F10050E0522B2091F100A3
S11306A06091F10032EF3093E800863009F046C0E3
S11306B037E08CE790E0FC01A591B491AC17BD073D
S11306C039F4FC013296A591B491A417B50721F031
S11306D00796315081F7B8C0FC0134964591549186
S11306E0FC013696849130E0362B2F3F310519F00A
S11306F010F02FEF30E0281708F4822F3EEF90918E
S1130700E800292F2570D9F392FDA1C0982F8134D8
S113071008F090E4FA01292F222331F064916093C8
S1130720F10021503196F8CF490F511D891B3093A8
S1130730E8008111E4CF903411F389C0853049F485
S11307408EEF8093E8000E947802C068C093E300B3
S11307507EC0893059F591113BC0C0930B018EEFD7
S11307608093E80041E081EA91E04093E9009C0134
S11307702F5F3F4FFC0154915093EB00552359F0E8
S1130780F90124912093EC009C012D5F3F4F319699
S113079084918093ED004F5F453011F0C901E5CF9E
S11307A08EE18093EA001092EA0051C0883039F457
S11307B0903871F40E94780280910B0129C0811154
S11307C007C00E9478021092F1001092F10038C024
S11307D0452BD1F5913AF9F4813069F40E947802FD
S11307E0E4E7F0E088E08E0F94919093F100319665
S11307F08E13FACF25C0823029F40E9478028091AA
S11308000A0106C0833001F50E9478028091080134
S11308108093F10015C09132B9F4893041F480918C
S1130820E80082FFFCCF8BEF8093E80009C08A3098
S113083019F4D0930A0104C08B3031F4C093080139
S11308408EEF8093E80003C081E28093EB00FF9178
S1130850EF91DF91CF91BF91AF919F918F917F9154
S11308606F915F914F913F912F910F900FBE0F9019
S10B08701F901895F894FFCFC6
S10D08786400000200020002010007
S9030000FC
